{
  "contractName": "Funder",
  "abi": [
    {
      "inputs": [],
      "name": "numofFunders",
      "outputs": [
        {
          "internalType": "uint256",
          "name": "",
          "type": "uint256"
        }
      ],
      "stateMutability": "view",
      "type": "function",
      "constant": true
    },
    {
      "stateMutability": "payable",
      "type": "receive",
      "payable": true
    },
    {
      "inputs": [],
      "name": "transfer",
      "outputs": [],
      "stateMutability": "payable",
      "type": "function",
      "payable": true
    },
    {
      "inputs": [
        {
          "internalType": "uint256",
          "name": "withdrawAmount",
          "type": "uint256"
        }
      ],
      "name": "withdraw",
      "outputs": [],
      "stateMutability": "nonpayable",
      "type": "function"
    }
  ],
  "bytecode": "0x608060405234801561001057600080fd5b506102fd806100206000396000f3fe6080604052600436106100385760003560e01c806309095fa4146100445780632e1a7d4d1461006f5780638a4068dd146100985761003f565b3661003f57005b600080fd5b34801561005057600080fd5b506100596100a2565b60405161006691906101ab565b60405180910390f35b34801561007b57600080fd5b50610096600480360381019061009191906101f7565b6100a8565b005b6100a061013d565b005b60005481565b671bc16d674ec800008111156100f3576040517f08c379a00000000000000000000000000000000000000000000000000000000081526004016100ea906102a7565b60405180910390fd5b3373ffffffffffffffffffffffffffffffffffffffff166108fc829081150290604051600060405180830381858888f19350505050158015610139573d6000803e3d6000fd5b5050565b33600160008054815260200190815260200160002060006101000a81548173ffffffffffffffffffffffffffffffffffffffff021916908373ffffffffffffffffffffffffffffffffffffffff160217905550565b6000819050919050565b6101a581610192565b82525050565b60006020820190506101c0600083018461019c565b92915050565b600080fd5b6101d481610192565b81146101df57600080fd5b50565b6000813590506101f1816101cb565b92915050565b60006020828403121561020d5761020c6101c6565b5b600061021b848285016101e2565b91505092915050565b600082825260208201905092915050565b7f43616e6e6f74207769746864726177206d6f7265207468616e2032204574686560008201527f7200000000000000000000000000000000000000000000000000000000000000602082015250565b6000610291602183610224565b915061029c82610235565b604082019050919050565b600060208201905081810360008301526102c081610284565b905091905056fea26469706673582212208fcb3ad279dd0d5fd5aa2799e53ac45f03b93b08a7e9c2eec2d8cbe0fa09b2c864736f6c634300080d0033",
  "immutableReferences": {},
  "source": "// SPDX-License-Identifier: MIT\r\npragma solidity >=0.4.22 <0.9.0;\r\n\r\ncontract Funder {\r\n    uint public numofFunders;\r\n\r\n    // create map from int to address\r\n    mapping(uint=>address) private funders;\r\n\r\n    receive() external payable{\r\n        \r\n    }\r\n\r\n    function transfer() external payable{\r\n        //storing the address of that funder\r\n        funders[numofFunders]=msg.sender;\r\n    }\r\n\r\n    function withdraw(uint withdrawAmount) external{\r\n        //ether to wei\r\n        //max 2 ether\r\n        require(withdrawAmount <= 2000000000000000000,\"Cannot withdraw more than 2 Ether\");\r\n        //transfer the amount\r\n        payable(msg.sender).transfer(withdrawAmount);\r\n    }\r\n\r\n}",
  "sourcePath": "E:\\Academics\\Desktop\\Web3\\fund\\contracts\\Funder.sol",
  "compiler": {
    "name": "solc",
    "version": "0.8.13+commit.abaa5c0e.Emscripten.clang"
  },
  "schemaVersion": "3.4.7",
  "updatedAt": "2022-09-04T13:08:46.374Z",
  "networkType": "ethereum",
  "devdoc": {
    "kind": "dev",
    "methods": {},
    "version": 1
  },
  "userdoc": {
    "kind": "user",
    "methods": {},
    "version": 1
  }
}